:030000000200C536
:0C00C500787FE4F6D8FD758109020094F4
:1000A700FF7FBFDFEFF7FBFDFEFF00000000000052
:0100B7000048
:10009400C2A2C2A3C2A4120003E5089000A793F56C
:0300A4009080F356
:10000300E4F50975B00FE5B0640F606F1200B8E551
:10001300B0640F606675B00FAFB0EF24F5601024C5
:10002300FE601114601324077012E4F508800D7547
:1000330008018008750802800375080375B0F0AFE6
:10004300B0EF2450601124E0601124F0601124709B
:100053007013850808800E74048006740880027487
:100063000C2508F508C3E509648094B2500DE5B08A
:0B00730064F060071200B8050980EA85
:01007E00225F
:0C00B8007F017E267D82DDFEDEFADFF691
:0100C4002219
:10007F00D3EF9400EE9400400B7D6EDDFEEF1F700A
:04008F00EF1E80ECF4
:01009300224A
:00000001FF
