:03000000020800F3
:0C080000787FE4F6D8FD758113020847EC
:0A08E800080801030206040C0809C9
:1008D500D2AFD2A9758901E4F58CF58AD28C7590D1
:0308E5000180FE91
:03000B0002088C5C
:10088C00C0E0C0D075D000C000C28C758C00758CD7
:10089C00000511E51170020510641445107023F564
:1008AC0010F5110513E513700205122408F8E6F58E
:1008BC0090D3E5139407E512940040067512007569
:0908CC001300D000D0D0D0E032BE
:10080C000208D5E493A3F8E493A34003F68001F225
:10081C0008DFF48029E493A3F85407240CC8C333ED
:10082C00C4540F4420C8834004F456800146F6DFBC
:10083C00E4800B01020408102040809008E8E47E5C
:10084C00019360BCA3FF543F30E509541FFEE493B1
:10085C00A360010ECF54C025E060A840B8E493A378
:10086C00FAE493A3F8E493A3C8C582C8CAC583CAA3
:10087C00F0A3C8C582C8CAC583CADFE9DEE780BE5B
:0108F2000005
:00000001FF
