:03000000020040BB
:100030003F065B4F666D7D077F6F777C395E797118
:1000400075303F75310675325B75334F75346675A3
:10005000356D75367D753707C2A2C2A3C2A485303F
:100060008011CB758000D2A2C2A3C2A485318011B9
:10007000CB758000C2A2D2A3C2A485328011CB75F9
:100080008000D2A2D2A3C2A485338011CB75800098
:10009000C2A2C2A3D2A485348011CB758000D2A2A3
:1000A000C2A3D2A485358011CB758000C2A2D2A391
:1000B000D2A485368011CB758000D2A2D2A3D2A45F
:1000C00085378011CB7580000200587FFFDFFE224C
:00000001FF
