:03000000020800F3
:0C080000787FE4F6D8FD758108020847F7
:03092B00010800C0
:10088C0075A0FE120920E508600FAFA07801EF08F3
:10089C00800123D8FDF5A0800DAFA07801EF088072
:0F08AC000103D8FDF5A07FD07E0712090780D782
:0B092000D288D2A8D28AD2AAD2AF227D
:10090700D3EF9400EE9400400F7D017C16DCFEDDF2
:08091700FAEF1F70EB1E80E8EF
:01091F0022B5
:030003000208BB35
:1008BB00C0E0C0D075D000C004C005C006C0077F23
:1008CB00017E00120907750801D007D006D005D0AC
:0608DB0004D0D0D0E03291
:030013000208E1FF
:1008E100C0E0C0D075D000C004C005C006C0077FFD
:1008F100017E00120907750800D007D006D005D087
:0609010004D0D0D0E0326A
:10080C0002088CE493A3F8E493A34003F68001F26E
:10081C0008DFF48029E493A3F85407240CC8C333ED
:10082C00C4540F4420C8834004F456800146F6DFBC
:10083C00E4800B010204081020408090092BE47E18
:10084C00019360BCA3FF543F30E509541FFEE493B1
:10085C00A360010ECF54C025E060A840B8E493A378
:10086C00FAE493A3F8E493A3C8C582C8CAC583CAA3
:10087C00F0A3C8C582C8CAC583CADFE9DEE780BE5B
:01092E0000C8
:00000001FF
