:03000000020040BB
:100030003F065B4F666D7D077F6F777C395E797118
:10004000C2A2C2A3C2A47900E990003093F58075E2
:10005000900F00AA90BA0F0280F311B0AA90BA0FC5
:100060000280EABA070479008013BA0B0479018090
:100070000CBA0D0479028005BA0ED279037590F09E
:10008000AA90BA7007740029F9020048BAB0077440
:100090000429F9020048BAD007740829F902004877
:1000A000BAE0AA740C29F97B3011B0DBFC020048DD
:0900B0007E157FF8DFFEDEFA2266
:00000001FF
