:0300000002003EBD
:1000300050656368696E20536369656E6365119DE1
:100040007F8111B2740090003093FF11C37401934B
:10005000FF11C3740293FF11C3740393FF11C374A0
:100060000493FF11C3740593FF11C3740693FF112A
:10007000C3740793FF11C3740893FF11C3740993EA
:10008000FF11C3740A93FF11C3740B93FF11C37460
:100090000C93FF11C3740D93FF11C3019B7F3811A3
:1000A000B27F0C11B27F0611B27F0111B27F8111B4
:1000B000B222C2A7C2A6C2A58F8011D4D2A711D4E2
:1000C000C2A722C2A7D2A6C2A58F8011D4D2A711DF
:0900D000D4C2A7227EFFDEFE224D
:00000001FF
