:03000000020003F8
:0C000300787FE4F6D8FD75811902004AF0
:1001260011082050656368696E20536369656E63C4
:0301360065200041
:1000E700120108E4F519C3E519941074809480503F
:1000F7000E74082519F8E6FF120146051980E780F6
:01010700FEF9
:10008F00C2B38B807F017E001200B8D2B47F057E91
:10009F00001200B8C2B4EBC454F0F5807F017E00AB
:0900AF001200B8D2B47F057E00F6
:1000B800D3EF9400EE940040257DC7EDD3940074EF
:1000C80080948040127C01ECD3940074809480402A
:0E00D800031C80F31D80E4EF1F70D51E80D244
:0100E60022F7
:0C013A00AB07C2B4C2B212008FC2B422E4
:0C014600AB07C2B4D2B212008FC2B422C8
:100108007F3212013A7F2812013A7F0C12013A7F9E
:0E0118000612013A7F0112013A7F8002013A7D
:10000F000200E7E493A3F8E493A34003F68001F220
:10001F0008DFF48029E493A3F85407240CC8C333F2
:10002F00C4540F4420C8834004F456800146F6DFC1
:10003F00E4800B0102040810204080900126E47E2A
:10004F00019360BCA3FF543F30E509541FFEE493B6
:10005F00A360010ECF54C025E060A840B8E493A37D
:10006F00FAE493A3F8E493A3C8C582C8CAC583CAA8
:10007F00F0A3C8C582C8CAC583CADFE9DEE780BE60
:0101390000C5
:00000001FF
