:0300000002118F5B
:0C118F00787FE4F6D8FD7581670211D668
:0E187D00C6D5D6D0BFC6BCBC0000000000001F
:031666000151012E
:1004B00012185E1215457521FEE4F557C2A81217F1
:1004C00099E556B40C0040030206B99004D2F8280E
:1004D00028730204F602052202053102053D0205D9
:1004E000930205A90205EB0205FA02060602063789
:1004F00002069A0206AD0524E52470020523D39472
:10050000FFE523940D4015E4F523F5248521A0AFE4
:10051000217801EF08800103D8FDF521E55660D66A
:100520008097C2AF121684D2AFE556640160F380A3
:100530008812000EE556640260F70204B97557018F
:100540000524E52470020523D394FFE5239400409D
:10055000391217E4E508540F9018BC93F559E508D3
:10056000C4540F93F55A755B40E509540F93F55C3D
:10057000E509C4540F93F55D755E40E50A540F9389
:10058000F55FE50AC4540F93F560E556640360B067
:100590000204B9C2AF1218E11217FA120B34E55671
:1005A000640460F1D2AF0204B91218D07F8012182F
:1005B00099E4F522E52290176693FF1218A505220B
:1005C000E522C3940D40ED7FC0121899E4F522E5B1
:1005D0002290177393FF1218A50522E522C39409F0
:1005E00040EDE556640560FA0204B9755701120939
:1005F000EDE556640660F70204B9120F97E55664FC
:100600000760F70204B90524E52470020523D3949A
:10061000FFE523940D4017E4F523F524AF211215CF
:100620006DAF217801EF08800103D8FDF521E55673
:10063000640860D20204B9120C6AC2AF7F1F7E0048
:100640001214E57BFF7A18797D752CF8752D0075ED
:100650002E00752F1FE4FDFC7F16FE120EB17529CA
:1006600000752A1D752BF8752C007B9A7D1D7C006A
:100670007F1612089E752900752A1F752BF8752C98
:10068000007B9A7D1F7C007F1612089ED2AFE4F596
:1006900056E556640960F70204B912184E12128F1B
:1006A000E556640A60F7C28EC2AB0204B912148325
:1006B000E556640B60F70204B9121601E556C394BF
:0606C0000C50F60204B923
:040B34008E258F2655
:100B380078277C007D007BFF7A1879867E007F0508
:100B48001203ABC3E52564809480501D7F80121882
:100B5800997F2D1218A56326FF6325FF0526E52634
:100B680070020525AC25FD800E7F801218997F2B19
:100B78001218A5AC25AD26EC1202218F2F8E2E8DD2
:100B88002D8C2CE4FFFE7DC87C40AB2FAA2EA92D0E
:100B9800A82C120116E4FBFAF9783F12002512027C
:100BA8005A8E258F26AE25AF267C277D1012046C21
:100BB8008F27AE25AF267C277D1012046C7E037F1D
:100BC800E8CFCDCFCECCCE12046C8F28AE25AF2681
:100BD8007C037DE812046C7E007F64CFCDCFCECC41
:100BE800CE12046C8F29AE25AF267C007D641204DA
:100BF8006C7E007F0ACFCDCFCECCCE12046C8F2A6C
:100C0800AE25AF267C007D0A12046C8D2B7F8212E4
:100C18001899E5272430FF1218A57F83121899E543
:100C2800282430FF1218A57F84121899E52924304A
:100C3800FF1218A57F851218997F2E1218A57F8696
:100C4800121899E52A2430FF1218A57F87121899DF
:100C5800E52B2430FF1218A57F881218997F4302CC
:020C680018A5CD
:101601007F801218997F451218A57F451218A57F72
:10161100521218A57F4F1218A57F521218A57F21CB
:031621000218A507
:0C000E00C2957F32DFFED2957F32DFFE0C
:01001A0022C3
:10156D00C2B6C2B5E4FEEFC4131313540124FF92A7
:10157D00B4EF25E0FFD2B60000C2B60EBE08E7D22A
:05158D00B50000C2B52D
:011592002236
:10121B00E4FFEFB40800504D90122AF8282873020F
:10122B00124202124602124E02125202125A0212BB
:10123B005E02126602126AC2A28002D2A2C2A3C2CC
:10124B00A48022C2A28002D2A2D2A3C2A48016C2C0
:10125B00A28002D2A2C2A3D2A4800AC2A28002D2CE
:10126B00A2D2A3D2A474592FF8E6F5807D327C006C
:10127B00ED1DAA0470011C4A70F6E4F5800FEF64B3
:03128B0008708F59
:01128E00223D
:100F9700C2AFE54E6432454D700DF54DF54E7F9469
:100FA7001217CB8E4F8F50054EE54E7002054D90B0
:100FB70018BCE493F560F55FF55EF55DAE4FAF5095
:100FC7007C277D101204177E037FE8CFCDCFCECCD0
:100FD700CE12041774BC2FF58274183EF583E49380
:100FE700F55CAE4FAF507C037DE81204177E007F9F
:100FF70064CFCDCFCECCCE12041774BC2FF582743C
:10100700183EF583E493F55BAE4FAF507C007D64EB
:101017001204177E007F0ACFCDCFCECCCE12041795
:1010270074BC2FF58274183EF583E493F55AAE4FDE
:10103700AF507C007D0A12041774BC2DF58274181A
:0D1047003CF583E493F55912121BD2AF2241
:10184E00438910758DFF758BFFD2ABD2AFD28E222E
:03001B00021716B3
:10171600C0E0758DFF758BFF0553E55370020552CA
:0B1726000555E55570020554D0E03277
:10128F00D3E5559464E5549400401BE4F554F555AB
:10129F00300008054CE54C7002054B200008E54C6A
:1012AF00154C7002154BE54CB4E807E54BB403023F
:1012BF00C200E54C454B7002D200D3E55394E8E5EC
:1012CF005294034005E4F552F553C3E553954CE5AD
:0B12DF0052954B5003D2A122C2A12265
:0D14510012156DE55125E0F5517F287E0054
:10145E00E4FDFCC3ED9FEC9E501AE4FBFAE556B496
:10146E000B0B0BBB00010AEB64794A70F00DBD004B
:04147E00010C80DFFE
:011482002247
:10148300755101E4F54AE551F4F5807FFF121451DB
:10149300054AE54AC3940840ED755101E4F54AE471
:1014A300F580AF51121451054AE54AC3940840EF41
:0114B3002216
:0A18BC003F065B4F666D7D077F6FEE
:1010FE0075900FE590640F700302118E7F017E00D4
:10110E00121780E590640F607775900FAF90EF2403
:10111E00F5601024FE601114601324077012E4F5BC
:10112E0056800D755601800875560280037556035C
:10113E007590F0AF90EF2450601124E0601124F010
:10114E00601124707013855656800E7404800674D8
:10115E00088002740C2556F556C3E5489432E547CF
:10116E0094005017E59064F060117F017E00121715
:10117E00800548E54870E2054780DEE4F547F5480E
:01118E00223E
:10178000D3EF9400EE9400400F7D267C82DCFEDDDA
:08179000FAEF1F70EB1E80E868
:01179800222E
:10185E00758902758C9C758A9CD2A9D2AFD28C22C6
:03000B000210548C
:10105400C0E0C0F0C083C082C0D075D000C000C062
:1010640001C002C003C004C005C006C0071210FEC0
:10107400E557606B758000E558B40800504D90103A
:1010840089F82828730210A10210A50210AD0210DD
:10109400B10210B90210BD0210C50210C9C2A2806B
:1010A40002D2A2C2A3C2A48022C2A28002D2A2D22D
:1010B400A3C2A48016C2A28002D2A2C2A3D2A480D8
:1010C4000AC2A28002D2A2D2A3D2A474592558F88B
:1010D400E6F5800558E558D394074003755800D0C9
:1010E40007D006D005D004D003D002D001D000D060
:0A10F400D0D082D083D0F0D0E032DB
:10151600C2A58F807F0A7E00121527D2A77F0A7E7A
:0115260000C4
:10152700D3EF9400EE940040147D6E7C00ED1D70A7
:0D153700011CED4C70F7EF1F70E61E80E305
:011544002284
:0C189900C2AFC2A6121516C2A7D2AF2221
:0C18A500C2AFD2A6121516C2A7D2AF2205
:101799007F381218997F0C1218997F061218997FB1
:0917A900011218997F80021899C1
:0818D900F1F3F2F6F4FCF8F95A
:10168400E4F525E5259018D993541FF5907F0F7E36
:0D169400001216A20525E525C3940840E6C6
:0116A1002226
:1016A200EF1FAA0670011E4A6013E4FCFDC3ED940D
:0D16B20050EC940050EA0DBD00010C80F0DA
:0116BF002208
:10166900071581838587898B8D070E8082848688FB
:0A1679008A8C06080000120101032C
:10183A007E08C2B600EF1392B4EFC313FF00D2B60C
:03184A0000DEEFCE
:01184D002278
:1016DE007E08C2B600A2B4E433FDC4333333548063
:0B16EE00FCEFC3134CFFD2B600DEE798
:0116F90022CE
:10181000C2B500C2B60000D2B50012183AAF051228
:05182000183AC2B522D8
:10164600C2B500C2B60000D2B50012183A1216DEB4
:0F165600C2B500C2B600D2B600C2B400D2B40012
:011665002262
:10154500E4FDFC7F8E121810E4FB740E2BF8E6FF09
:1015550074082BF8E6FD7C001218100BBB07EB7D19
:08156500807C007F8E0218104B
:1017E400E4FB74152BF8E6FF12164674082BF8A6D2
:0517F400070BBB07ED2F
:0117F90022CD
:1016C000D3EF9400EE940040147D6E7C00ED1D700D
:0D16D000011CED4C70F7EF1F70E61E80E36B
:0116DD0022EA
:1014B400C2AFC2B77F647E00EF1F70011EEF4E7093
:1014C400F7D2B70FBF0000E4FEFF30B7110FBF0023
:1014D400010ED3EF94F4EE940140EF7F00227F01DC
:0114E40022E5
:0C1337001214B47F017E001216C07FCC9F
:02134300AD07F4
:10134500C2AFE4FFFEC2B70BBB00000BBB0000ED54
:101355001392B77A007B06EB1B70011AEB4A70F704
:10136500D2B70BBB00010A0BBB00010AEDC313FD8D
:0D1375000FBF00010EEF64084E70CAD2AF2A
:011382002248
:1013CF00C2AF7D087C00C2B70FBF0000D2B70FBFFE
:1013DF0000000FBF0000A2B7E433C433333354808F
:1013EF00FBE9C3134BF97E007F05EF1F70011EEF62
:1013FF004E70F7ED1D70011CED4C70CAD2AFAF01EE
:01140F0022BA
:0818E1001213377F4402134388
:0818E9001213377FBE02134306
:1017FA00E4FFFE1218E11218E91213CFAA07121316
:05180A00CFEFFEEAFF34
:01180F0022B6
:101766002052656420436F6E74726F6C202049525C
:0A1776002D434F44453A2D2D482025
:10138300E564C4540FF567E564540FF568E567D366
:1013930094097FC94009121899E567243780071219
:1013A3001899E5672430FF1218A5E568D394097FDF
:1013B300CA4009121899E56824378007121899E57D
:0C13C300682430FF1218A57F480218A50E
:0918D000D288D2A8D2AFD2B22214
:04174C007F017E009B
:10175000EF1FAA0670011E4A600BE4FDEDC3940D55
:0517600050EE0D80F7C2
:011765002261
:03000300020D9853
:100D9800C0E0C0F0C083C082C0D075D000C000C021
:0D0DA80001C002C003C004C005C006C007A2
:100DB500C2AF7561007F467E0012175030B2030244
:100DC5000E919003E820B218D3E5829400E5839450
:100DD50000400D12174CE582158270E9158380E5F8
:100DE50020B203020E869001F430B218D3E5829446
:100DF50000E5839400400D12174CE582158270E9D9
:100E0500158380E5E4FC75490090003C20B21BD3B6
:100E1500E5829400E5839400401020B2EF12174C50
:100E2500E582158270F4158380F09001F430B223C9
:100E3500D3E5829400E5839400401812174C0561B0
:100E4500E582158270021583E561D3941E40DED2DA
:100E5500AF803E74622CF8C000E6FFC313D000F6E5
:100E6500E561C39408400874622CF8E64480F67581
:100E750061000549E549C39408408E0CEC64047093
:100E850085E565F465646004D2AF8005D2AF1213C1
:010E950083D9
:100E9600D007D006D005D004D003D002D001D000B0
:0B0EA600D0D0D082D083D0F0D0E0325A
:05188B00121890D2A12B
:081890007F017E02DEFEDFFA9B
:01189800222D
:0F186E00D2A012188BC2A0121890C2A10218901B
:0A18C600C2A012188BD2A0021890E5
:02141000AD0726
:10141200E4FBFAEDC4131313540124FF92A0ED254B
:10142200E0FD12188BC2A11218900BBB08E5D2A0E6
:10143200121890D2A130A00F0AEAD394C840F6C283
:0E144200A11218907F0022C2A11218907F0103
:011450002279
:10159300E4FDFCD2A0121890D2A1121890EC25E021
:1015A300FCA2A0E4334204121890C2A11218900DB9
:0515B300BD08E5AF04D6
:0115B8002210
:1009ED00C2AF20B12E7F017E0012178020B107AD5E
:1009FD001C7F021217B2E525C39432500E20B10BA5
:100A0D0005257F017E0012178080EBE4F525F52585
:100A1D00020AA420B0267F017E0012178020B007A5
:100A2D007F021216248F1CE525C39432506620B028
:100A3D006305257F017E0012178080EB20B2307F89
:100A4D00017E0012178020B202051CE525C39432E9
:100A5D00500E20B20B05257F017E0012178080EB12
:100A6D00E4F525E51C70027401702CF51C8028201E
:100A7D00B3257F017E0012178020B303E4F51CE53A
:100A8D0025C39432500E20B30B05257F017E001235
:100A9D00178080EBE4F525E4F559F55AF55BF55C27
:100AAD00E51CFB7C037DE8FF7E0012041774BC2F50
:100ABD00F58274183EF583E493F5607C037DE8AF11
:100ACD00037E00120417AA04AB057D647C00AF03FE
:100ADD00AE0212041774BC2FF58274183EF583E430
:100AED0093F55F7D647C00AF03AE02120417AA0478
:100AFD00AB057D0A7C00AF03AE0212041774BC2F48
:100B0D00F58274183EF583E493F55E7D0A7C00AFA3
:100B1D0003AE0212041774BC2DF58274183CF583D4
:060B2D00E493F55DD2AF78
:010B3300229F
:1017B2008F268D2712186E7FA0121410AF261214D6
:0917C20010AF271214100218C622
:021624008F260F
:1016260012186E7FA0121410AF2612141012186E24
:0F1636007FA11214101215938F271218C6AF2719
:011645002282
:1006C600C6D50000180000603800007078000038B9
:1006D600F0000039C0000011FC0000FFFC0000FF24
:1006E600800000198C0000199C000399B80001D9FC
:1006F600F00001D9C1C0001BFFF007FFFFF0FFF0BB
:1007060000007800400000DFF00000FFF00000C0AD
:10071600700000CF700000FF700000D0700000C0B5
:10072600700000C0700000FFF000007FE000004095
:10073600600000006000D6D000000000000E00003F
:10074600000F0000000E000000060000000600007A
:10075600000600000006FE000FFFFF000FFE0F0060
:1007660007060E0007060E0007060C0003061C000F
:10077600030FFC0003FFFC0003F600000106000067
:10078600000600000006000000060000000600004B
:10079600000600000006000000060000000600003B
:1007A600000600000006000000060000BFC60000AC
:1007B600000000000C0000000E00001C0E00003CB3
:1007C6000E0000F80E0003E08E000661EE000060E9
:1007D6007E00006C0E00007E0E000FF8E6007FE043
:1007E60066003DF80E6001FC0FF803ECFFF80767A2
:1007F600FE000E630E001C600E0038600E00706076
:100806000E0040E00E0000E00E0000C00E0000C02A
:100816000E0000C0040000000400000004000000F8
:100826000400BCBC000000000300C0000380F00010
:1008360001C07000018060000180600001806000DE
:1008460001807F0001A1FF0003F7F0003FE3C00035
:100856003F80C0000180C80001A0FC0001CFFC0061
:10086600038E1800078E38001F873000FD83F000C6
:10087600F180E0006180F0000183BC0001871F0069
:100886000F9E07E007B803F8030001F0030000001D
:0808960000000000000000005A
:101825008A418B428D82AB078582461212EAAF420E
:05183500AE410215C2E6
:10089E00E4F52FF530F531F532EFF582758300EB87
:1008AE00C39582F534E49583F533C3E52A9DF53679
:1008BE00E5299CF53585833F8582408C3D8D3ED361
:1008CE00E5349400E53364809480400875390075F2
:1008DE003A01801DE53445337006F539F53A80113D
:1008EE0074FFF539F53AC3E49534F534E49533F5F0
:1008FE0033D3E5369400E535648094804008753B2B
:10090E0000753C01801DE53645357006F53BF53C1E
:10091E00801174FFF53BF53CC3E49536F536E4954E
:10092E0035F535D3E5349536E5356480F8E5336431
:10093E00809840088533378534388006853537856D
:10094E003638E4F52DF52EE5382401FFE43537FE73
:10095E00D3E52E9FE52D9E40030209ECAF40AB2C54
:10096E00AA2BAD3EAC3D121825E5342530F530E509
:10097E0033352FF52FE5362532F532E5353531F5A0
:10098E0031D3E5309538E5376480F8E52F648098EB
:10099E004018E5309538F530E52F9537F52FE53AC7
:1009AE002540F540E539353FF53FD3E5329538E53D
:1009BE00376480F8E5316480984018E5329538F553
:1009CE0032E5319537F531E53C253EF53EE53B35D3
:0E09DE003DF53D052EE52E7002052D02095552
:0109EC0022E8
:0E0EB1008E258F268C278D288B298A2A892B47
:100EBF00AB29AA2AA92B1203D17003020F96AF26D2
:100ECF00AD28EF241FFBED241CF5461212EAE4F5C2
:100EDF0032AB29AA2AA92B1203D1FF75F076E5327E
:100EEF00A424C6F582E5F03406F583E4936F70729F
:100EFF009000011203EAFF75F076E532A424C7F5DE
:100F0F0082E5F03406F583E4936F7056F53075F093
:100F1F0076E532A424C8F582E5F03406F583E58240
:100F2F002530F582E43583F583E493753300F5348A
:100F3F00E4F531E53430E706AF2DAE2C8004AF2F4A
:100F4F00AE2E1215C2E53425E0F534E53333F53313
:100F5F000531E531C3940840DA0530E530C39474A8
:100F6F0040AC0532E532C394145003020EE0740214
:100F7F00252BF52BE4352AF52A74202526F526E4B2
:070F8F003525F525020EBF18
:010F96002238
:04173100AD07AC064E
:10173500AF04AE05D2A6C2B2D2A5C2A78F808E9045
:06174500C2A6D2A6D2B23A
:01174B00227B
:0915B9007E001215C27F057E00C0
:0415C200AD07AC06BF
:1015C600AF04AE05D2A6C2B2D2A5D2A78F808E90A6
:0615D600C2A6D2A6D2B2AB
:0115DC0022EC
:100C6A00D2B37FF47E01EF1F70011EEF4E70F7C200
:100C7A00B37E017FF4EF1F70011EEF4E70F7D2B3FF
:100C8A007E137F88EF1F70011EEF4E70F7C2B27F8E
:100C9A00117E001217317FC57E001217317FC57E83
:100CAA00001215C27FF07E001217317F5A7E0012A1
:100CBA0015C27FF27E001217317F017E001215C223
:100CCA007FE07E00121731E4FFFE1215C27F017E1B
:100CDA00001215C27F067E001215C27F2E7E0012F8
:100CEA0015C27F2B7E001215C27F0B7E001215C221
:100CFA007F1A7E001215C27F027E001215C27F067D
:100D0A001215B97F0C7E001215C27F0D7E001215D6
:100D1A00C2E4FFFE1215BB7F021215B97FE17E0005
:100D2A001217317F067E001215C27F237E0012152C
:100D3A00C27F257E001215C27F0F7E001215C27F68
:100D4A000A7E001215C27F047E001215C27F027E3F
:100D5A00001215C27F1A1215B97F037E001215C23E
:100D6A007F067E001215C27F017E001215C27F0C1B
:100D7A007E001215C27F0B1215B91215BE7F3A7E7C
:0E0D8A00001217311215BE7F297E00021731AC
:1012EA00A907AA057F2A7E00121731E4FFFE12150C
:1012FA00C2AF017E001215C2E4FFFE1215C2AF038F
:10130A007E001215C27F2B7E00121731E4FFFE12F7
:10131A0015C2AF027E001215C2E4FFFE1215C2AF5B
:0D132A00467E001215C27F2C7E0002173196
:0414E5008E258F269B
:1014E9007546DB7BAFE4FDFF1212EAE4FBFA9000DC
:1014F90000AF26AE251215C2A3E58264DC458370D0
:0C150900F00BBB00010AEB64B04A70E27A
:0115150022B3
:0B18B100C2B6D2B5D2B4D2B6C2B52286
:1016FA00C2B6E4FEEFC4131313540124FF92B4EFED
:0B170A0025E0FFC2B6D2B60EBE08E913
:0117150022B1
:1015DD00E4FFFEC2B6FDFCEF25E0FFEE33FED2B612
:1015ED00C2B6A2B7E43342070DBD00010CED640C89
:0315FD004C70E44B
:0116000022C7
:1017CB00C2B6C2B51216FA7F06DFFED2B60000C251
:0817DB00B600001215DDD2B5C5
:0117E30022E3
:10001E000202C6E86480F8E933E83360110460F048
:10002E00ED33EC337009E8FCE9FDEAFEEBFF220448
:10003E0060DED3EB9FEA9EE99DE8C2E78CF0C2F743
:10004E0095F0400CE8CCF8E9CDF9EACEFAEBCFFB0F
:10005E0012029185D0F05804700320D5B3E80470D5
:10006E00075002B2D50202D092D5EC0460F7E4CC70
:10007E00C0E0C398F8603B94186008400DD0E0FBD8
:10008E000202A8E4FBFAC9FC8028E830E406E4C9C1
:10009E00FBE4CAFCE830E305E4C9CACBFCE854072C
:1000AE006010F8C3E913F9EA13FAEB13FBEC13FC37
:1000BE00D8F130F52FC3E49CFCEF9BFFEE9AFEEDDA
:1000CE0099FDD0E0FBEF4E4D4C701222DB03020285
:1000DE00CDEC2CFCEF33FFEE33FEED33FDED30E7D0
:1000EE00EB0202A8EF2BFFEE3AFEED39FDD0E0FB5E
:1000FE0050130BBB00030202D0ED13FDEE13FEEF07
:08010E0013FFEC13FC0202A830
:10011600EC4D6011E8497017ED33EC3304600DE4E3
:10012600FCFFFEFD22E933E8330470F80202C61232
:10013600029158046009E4CC248150062850090233
:1001460002D02840030202CDC0E0EB4A7044B980D9
:1001560006D0E0FB0202BCEF4E701CBD8008EBFF30
:10016600EAFEE9FD80EBE98DF0A4FEE5F00201FF71
:10017600E9CDF9EAFEEBFFEF89F0A4FCE5F0CE89C4
:10018600F0A42EFFE435F0CD89F0A42DFEE435F081
:100196008067EF4E7005BD80D780C3EF8BF0A4ACAF
:1001A600F0EE8BF0A42CFCE435F0F8EF8AF0A42CEA
:1001B600E5F038FCE433CB8DF0A42CFCE5F03BF8FD
:1001C600EE8AF0A42CFCE5F038F8E433CF89F0A4ED
:1001D6002CFCE5F038CF3400CE89F0A42FFFE5F0F3
:1001E6003EFEE433C98DF0A42EFEE5F039CD8AF04B
:1001F600A42FFFE5F03EFEE43DFD33D0E0FB5007C3
:100206000BBB000F0202D0EC2CFCEF33FFEE33FEEB
:06021600ED33FD0202A819
:10021C0075F020800E75F010800575F0087D007E5D
:10022C00007F003392D530D5031204A2EC3340107A
:10023C00EF33FFEE33FEED33FDEC33FCD5F0ED2266
:0E024C00E5F0247EA2D513CC92E7CDCEFF22A2
:10025A00EDD2E7CD33EC3392D524814006E4FFFE9C
:10026A00FDFC22FCE4CFCECDCC24E0501174FF80FB
:10027A00EDC3CC13CCCD13CDCE13CECF13CF047098
:07028A00F030D5DE0204A2F2
:10029100E9D2E7C933E833F892D5EDD2E7CD33ECB3
:0702A10033FC5002B2D5222C
:1002A800EC30E7100FBF000C0EBE00080DBD0004B7
:1002B8000BEB6014A2D5EB13FCED92E7FD2274FF63
:1002C800FCFDFEFF22E480F8A2D574FF13FC7D80BC
:0302D800E480EFD0
:10119B000204B0E493A3F8E493A34003F68001F2B6
:1011AB0008DFF48029E493A3F85407240CC8C33355
:1011BB00C4540F4420C8834004F456800146F6DF24
:1011CB00E4800B0102040810204080901666E47E38
:1011DB00019360BCA3FF543F30E509541FFEE49319
:1011EB00A360010ECF54C025E060A840B8E493A3E0
:1011FB00FAE493A3F8E493A3C8C582C8CAC583CA0B
:10120B00F0A3C8C582C8CAC583CADFE9DEE780BEC2
:011683000066
:1002DB00E709F608DFFA8046E709F208DFFA803E05
:1002EB0088828C83E709F0A3DFFA8032E309F608F2
:1002FB00DFFA8078E309F208DFFA807088828C835A
:10030B00E309F0A3DFFA806489828A83E0A3F6080D
:10031B00DFFA805889828A83E0A3F208DFFA804CE7
:10032B0080D280FA80C680D4806980F280338010BE
:10033B0080A680EA809A80A880DA80E280CA803327
:10034B0089828A83ECFAE493A3C8C582C8CCC5839F
:10035B00CCF0A3C8C582C8CCC583CCDFE9DEE7806F
:10036B000D89828A83E493A3F608DFF9ECFAA9F0EE
:10037B00EDFB2289828A83ECFAE0A3C8C582C8CC44
:10038B00C583CCF0A3C8C582C8CCC583CCDFEADE5D
:10039B00E880DB89828A83E493A3F208DFF980CCBF
:1003AB0088F0EF60010E4E60C388F0ED2402B404B8
:1003BB000050B9F582EB2402B4040050AF2323455F
:0603CB00822390032B7356
:1003D100BB010689828A83E0225002E722BBFE022A
:0903E100E32289828A83E493225D
:1003EA00BB010CE58229F582E5833AF583E02250C8
:1003FA0006E92582F8E622BBFE06E92582F8E22212
:0D040A00E58229F582E5833AF583E493222B
:10041700BC000BBE0029EF8DF084FFADF022E4CCC9
:10042700F875F008EF2FFFEE33FEEC33FCEE9DEC92
:10043700984005FCEE9DFE0FD5F0E9E4CEFD22EDD8
:10044700F8F5F0EE8420D21CFEADF075F008EF2F22
:10045700FFED33FD4007985006D5F0F222C398FD13
:050467000FD5F0EA22B0
:10046C00C2D5EC30E709B2D5E4C39DFDE49CFCEEAB
:10047C0030E715B2D5E4C39FFFE49EFE120417C308
:10048C00E49DFDE49CFC800312041730D507C3E403
:06049C009FFFE49EFE221A
:0E04A200C3E49FFFE49EFEE49DFDE49CFC226B
:00000001FF
